:100000000C9463000C94E2070C94BB070C948B00D7
:100010000C948B000C948B000C948B000C940908AE
:100020000C948B000C948B000C948B000C948B0024
:100030000C948B000C948B000C948B000C948B0014
:100040000C9471070C948B000C948B080C9465082D
:100050000C948B000C948B000C948B000C948B00F4
:100060000C94BD080C948B000000000024002700B5
:100070002A000000000023002600290000000008DC
:10008000000201000003040700000000000000005F
:10009000010204081020408001020408102001021F
:1000A0000408102000000000250028002B00040494
:1000B0000404040404040202020202020303030310
:1000C00003030200EB0911241FBECFEFD8E0DEBF0F
:1000D000CDBF11E0A0E0B1E0ECE8F1E202C0059094
:1000E0000D92A435B107D9F722E0A4E5B1E001C033
:1000F0001D92AE3DB207E1F710E0C3E6D0E004C0C8
:100100002197FE010E94AA10C236D107C9F70E94AA
:10011000240A0C94C4100C940000FC01538D448DEF
:10012000252F30E0842F90E0821B930B541710F0A2
:10013000CF96089501970895FC01918D828D9817AF
:1001400061F0828DDF01A80FB11D5D968C91928DBB
:100150009F5F9F73928F90E008958FEF9FEF0895B8
:10016000FC01918D828D981731F0828DE80FF11D81
:10017000858D90E008958FEF9FEF0895FC01918D9C
:10018000228D892F90E0805C9F4F821B91098F7395
:1001900099270895FC01848DDF01A80FB11DA35A92
:1001A000BF4F2C91848D90E001968F739927848F97
:1001B000A689B7892C93A089B1898C9183708064BA
:1001C0008C93938D848D981306C00288F389E02D5B
:1001D00080818F7D80830895EF92FF920F931F930C
:1001E000CF93DF93EC0181E0888F9B8D8C8D9813EA
:1001F00005C0E889F989808185FD26C0F62E0B8D22
:1002000010E00F5F1F4F0F731127E02E8C8DE81247
:100210000CC00FB607FCFACFE889F989808185FF09
:10022000F5CFCE010E94CA00F1CF8B8DFE01E80F01
:10023000F11DE35AFF4FF0829FB7F8940B8FEA89C4
:10024000FB89808180620AC09FB7F894EE89FF899C
:100250006083E889F98980818370806480839FBF8F
:1002600081E090E0DF91CF911F910F91FF90EF908F
:100270000895CF93DF93EC01888D8823C9F0EA8934
:10028000FB89808185FD05C0A889B9898C9186FD8F
:100290000FC00FB607FCF5CF808185FFF2CFA8898C
:1002A000B9898C9185FFEDCFCE010E94CA00E7CFBE
:1002B000DF91CF91089584E392E00E94BE0021E097
:1002C000892B09F420E0822F089580E090E0892BAB
:1002D00029F00E945B0181110C9400000895833085
:1002E00081F028F4813099F08230A1F008958730B0
:1002F000A9F08830B9F08430D1F4809180008F7DEE
:1003000003C0809180008F7780938000089584B52A
:100310008F7702C084B58F7D84BD08958091B00031
:100320008F7703C08091B0008F7D8093B0000895D7
:10033000CF93DF93EFE7F0E08491E3E9F0E0D4912D
:10034000E1EBF0E0C491CC2391F081110E946F01A8
:10035000EC2FF0E0EE0FFF1FEE58FF4FA591B49188
:10036000EC91ED2381E090E021F480E002C080E098
:1003700090E0DF91CF9108951F93CF93DF93282FC3
:1003800030E0F901E458FF4F8491F901E057FF4F45
:10039000D491F901E255FF4FC491CC23C1F0162F3F
:1003A00081110E946F01EC2FF0E0EE0FFF1FEC5562
:1003B000FF4FA591B4919FB7F894111104C08C918F
:1003C000D095D82302C0EC91DE2BDC939FBFDF9148
:1003D000CF911F910895CF93DF9390E0FC01E057F8
:1003E000FF4F2491FC01E255FF4F8491882361F176
:1003F00090E0880F991FFC01E859FF4FC591D491F7
:10040000FC01EC55FF4FA591B491611109C09FB754
:10041000F8948881209582238883EC912E230BC049
:10042000623061F49FB7F8948881322F309583232E
:100430008883EC912E2B2C939FBF06C08FB7F89426
:10044000E8812E2B28838FBFDF91CF9108954F92A3
:100450005F926F927F928F929F92AF92BF92CF9254
:10046000DF92EF92FF920F931F93CF93DF9300D011
:1004700000D01F92CDB7DEB78C012A013B018091DD
:100480001E018B3021F08F3F09F03DC205C0E2EC28
:10049000F0E024912D8372C08BE080931E01E2EC8A
:1004A000F0E084918D838F3F09F42DC2813009F4EF
:1004B00041C038F1823009F061C01092B000109252
:1004C000B1008091B00082608093B0008091B10053
:1004D00081608093B100E9EBF0E0E491F0E0EE0F91
:1004E000FF1FEC55FF4F859194919093DA01809313
:1004F000D901EBE9F0E0E491E093D80122E02D830B
:10050000FDC114BC15BC84B5826084BD85B5816015
:1005100085BDE9EBF0E0E491F0E0EE0FFF1FEC5554
:10052000FF4F85919491EBE9F0E0E491E093DC01D9
:100530001D82E4C1109280001092810080918100A0
:100540008860809381008091810081608093810028
:10055000E9EBF0E0E491F0E0EE0FFF1FEC55FF4F08
:1005600085919491EBE9F0E0E491E093DB0161E0A7
:100570008BE00E94EB0191E09D838AC08D8187FD15
:10058000C2C161E08BE00E94EB018D818D7F09F09B
:100590007FC04801A12CB12C60E072E18AE790E0B5
:1005A000A50194010E94801029833A834B835C83C8
:1005B00069017A0191E0C91AD108E108F1082FEF29
:1005C000C216D104E104F10409F008F44EC060E45D
:1005D00072E48FE090E0A50194010E94801069010F
:1005E0007A0181E0C81AD108E108F1089D819230B2
:1005F00009F52FEFC216D104E104F10409F008F463
:1006000044C160E970ED83E090E0A50194010E948F
:10061000801069017A0181E0C81AD108E108F10867
:100620009FEFC916D104E104F10411F008F0BAC03B
:1006300083E027C02FEFC216D104E104F104B9F022
:10064000B0F068E478EE81E090E0A50194010E94AA
:10065000801069017A0181E0C81AD108E108F10827
:100660009D81992309F413C1DCC081E001C082E0BF
:100670009D81911106C095B5987F892B85BD44C099
:1006800085E09091B100987F892B8093B1003CC0A8
:100690004801A12CB12C60E072E18AE790E0A5014D
:1006A00094010E94801069017A0181E0C81AD10882
:1006B000E108F108C114D10491E0E906F10488F0E1
:1006C00068E478EE81E090E0A50194010E9480103A
:1006D00069017A0181E0C81AD108E108F10883E0D4
:1006E00001C081E09D81913079F490918100987FE3
:1006F000892B80938100411451046104710449F4F1
:100700002FEF3FEFA9012CC0411451046104710483
:1007100071F0D801AA0FBB1FA30192010E949F1084
:1007200028EE33E040E050E00E945E1003C02FEF5F
:100730003FEFA9018D81813099F0823019F181114B
:10074000E2C0C7BC2093E5013093E6014093E70186
:100750005093E80180916E00826080936E00D3C058
:10076000D0928900C09288002093E1013093E20189
:100770004093E3015093E40180916F008260809385
:100780006F00C1C0C092B3002093DD013093DE0141
:100790004093DF015093E00180917000826080936C
:1007A0007000B1C068E478EE81E090E0A5019401AA
:1007B0000E94801069017A0191E0C91AD108E1080C
:1007C000F1082FEFC216D104E104F10441F138F130
:1007D00064E274EF80E090E0A50194010E94801033
:1007E00069017A0181E0C81AD108E108F1089FEF98
:1007F000C916D104E104F10409F008F441CF62E123
:100800007AE780E090E0A50194010E9480106901E0
:100810007A0181E0C81AD108E108F10819C084E022
:1008200030CF2FEFC216D104E104F10409F008F42F
:1008300063C062E17AE780E090E0A50194010E9444
:10084000801069017A0191E0C91AD108E108F10824
:100850008FEFC816D104E104F104A9F0A0F089815A
:100860009A81AB81BC812AE0B595A795979587952C
:100870002A95D1F76C017D0121E0C21AD108E10867
:10088000F10887E0FECE86E0FCCE82E0FACE8FEF64
:10089000C816D104E104F10469F160F162E17AE77C
:1008A00080E090E0A50194010E94801069017A0126
:1008B00091E0C91AD108E108F1082FEFC216D1045E
:1008C000E104F104A9F0A0F089819A81AB81BC8197
:1008D0003AE0B595A795979587953A95D1F76C012C
:1008E0007D0121E0C21AD108E108F10885E0C3CEFC
:1008F00084E0C1CE83E0BFCE84E0BACE61E08BE07D
:100900000E94EB0146CE0F900F900F900F900F902A
:10091000DF91CF911F910F91FF90EF90DF90CF90DB
:10092000BF90AF909F908F907F906F905F904F900F
:1009300008953FB7F8948091D4019091D501A0918A
:10094000D601B091D70126B5A89B05C02F3F19F05D
:100950000196A11DB11D3FBFBA2FA92F982F88273F
:10096000820F911DA11DB11DBC01CD0142E0660F9A
:10097000771F881F991F4A95D1F708958F929F92EC
:10098000AF92BF92CF92DF92EF92FF926B017C0108
:100990000E9499044B015C01C114D104E104F104EB
:1009A000F1F00E949904DC01CB0188199909AA0988
:1009B000BB09883E9340A105B10570F321E0C21A3E
:1009C000D108E108F10888EE880E83E0981EA11C8A
:1009D000B11CC114D104E104F10419F7DDCFFF907B
:1009E000EF90DF90CF90BF90AF909F908F90089541
:1009F0008091CD019091CE0101969093CE0180938C
:100A0000CD0108958091CB019091CC0101969093F6
:100A1000CC018093CB0180911601909117019093A6
:100A2000C6018093C5011092C1011092C00182E0FD
:100A300090E090931D0180931C01089508950895FE
:100A4000089590911E01891324C0E2ECF0E0E49136
:100A50009FEF90931E01E130B9F098F0E230C9F4B5
:100A6000909170009D7F9093700091E09093B00002
:100A70009091B100987F94609093B1001092B30070
:100A800008C010926E0005C090916F009D7F9093FA
:100A90006F0060E00C94BC01CF92DF92EF92FF9266
:100AA0000F931F93CF93DF936C017A018B01C0E00A
:100AB000D0E0CE15DF0581F0D8016D918D01D60112
:100AC000ED91FC910190F081E02DC6010995892BF3
:100AD00011F02196EECF7E01C701DF91CF911F91DA
:100AE0000F91FF90EF90DF90CF90089585ED809368
:100AF000BC008091BC0084FDFCCF10920F020895D1
:100B000040919401262F30E0240F311D2132310510
:100B1000DCF420910F022430C9F4FC0180E090E065
:100B2000861758F4309194012191DC01AC58BE4FE6
:100B3000A30FB11D2C930196F3CF80919401680F00
:100B40006093940180E0089581E0089582E0089523
:100B50000895E091BC018091BB01E81730F4F0E00A
:100B6000EC5AFE4F808190E008958FEF9FEF08953B
:100B70009091BC018091BB01981750F4E92FF0E0EF
:100B8000EC5AFE4F208130E09F5F9093BC0102C081
:100B90002FEF3FEFC90108958091BB0190E02091B4
:100BA000BC01821B91090895CF92DF92EF92FF92D0
:100BB0000F931F93CF93DF937C01CB018A01209188
:100BC0003302222389F0EB016B01C40ED51ECC1534
:100BD000DD0569F06991D701ED91FC910190F081FB
:100BE000E02DC7010995F3CF642F0E948005C8014D
:100BF000DF91CF911F910F91FF90EF90DF90CF90F9
:100C00000895CF93DF931F92CDB7DEB7698320910C
:100C100033022223D1F020913002203240F021E033
:100C200030E0FC013383228380E090E015C08091A6
:100C30003102E82FF0E0E05FFD4F998190838F5FF4
:100C4000809331028093300205C061E0CE010196AD
:100C50000E94800581E090E00F90DF91CF91089590
:100C6000089580E090E008950F931F93CF93DF9352
:100C70008C01D091B8008CE08093B800C091DD0267
:100C800081E080933302C0933202109231021092BD
:100C9000300260E481ED92E00E940106B80184E038
:100CA000769567958A95E1F781ED92E00E940106BD
:100CB000B80194E0660F771F9A95E1F781ED92E015
:100CC0000E94010690913002913208F045C0809157
:100CD0000F028111FCCF82E080930F0281E08093AC
:100CE0000E028FEF80930D0210920C0290930B0274
:100CF000A0E1B2E0EBEEF1E080E0981721F02D9159
:100D000021938F5FFACF1092EA018091EA01CC0F14
:100D1000C82BC093EA018091E901813061F41092FF
:100D2000E9018091EA018093BB008091BC0083FDC2
:100D3000F8CF85EC01C085EE8093BC0080910F0256
:100D40008230E1F380910D028F3F31F080910D02EE
:100D5000803211F080910D02109231021092300217
:100D600010923302D093B800DF91CF911F910F9171
:100D700008958F929F92AF92BF92CF92DF92EF929F
:100D8000FF92C0900A01D0900B01E0900C01F0900E
:100D90000D012AE939E949E95EE3C701B6010E947C
:100DA000210E20E030E040EC5FE30E94200E4B017A
:100DB0005C016091140170911501072E000C880BE5
:100DC000990B0E943C0F9B01AC01C501B4010E942C
:100DD000920E4B015C016091BE017091BF01072E24
:100DE000000C880B990B0E943C0F9B01AC01C501C4
:100DF000B4010E94F10F20E030E040EC5FE30E947C
:100E0000210E4B015C0120E030E040EC5FE30E94EA
:100E10008D0E882349F080920E0190920F01A092CE
:100E20001001B09211010CC08AE999E9A9E5BFE36C
:100E300080930E0190930F01A0931001B0931101C4
:100E400020910E0130910F0140911001509111013C
:100E5000C701B6010E948D0E87FF08C0C0920E0127
:100E6000D0920F01E0921001F092110120E030ECDD
:100E70004CE454E460910E0170910F0180911001D7
:100E8000909111010E94F10F0E940B0FC090000180
:100E9000D0900101E0900201F09003016C157D05F6
:100EA0008E059F0599F06093000170930101809376
:100EB000020190930301CB01FF90EF90DF90CF9060
:100EC000BF90AF909F908F900C943406FF90EF905E
:100ED000DF90CF90BF90AF909F908F9008950E9429
:100EE000BF101F920F920FB60F9211242F933F93B2
:100EF0008F939F93AF93BF938091D0019091D10135
:100F0000A091D201B091D3013091CF0123E0230F02
:100F10002D3720F40196A11DB11D05C026E8230F31
:100F20000296A11DB11D2093CF018093D001909313
:100F3000D101A093D201B093D3018091D4019091BB
:100F4000D501A091D601B091D7010196A11DB11D87
:100F50008093D4019093D501A093D601B093D7018B
:100F6000BF91AF919F918F913F912F910F900FBEA5
:100F70000F901F9018951F920F920FB60F92112489
:100F80002F933F934F935F936F937F938F939F9391
:100F9000AF93BF93EF93FF93E0910601F0910701A8
:100FA0000995FF91EF91BF91AF919F918F917F91A3
:100FB0006F915F914F913F912F910F900FBE0F90C6
:100FC0001F9018951F920F920FB60F9211242F9316
:100FD0003F934F935F936F937F938F939F93AF93C1
:100FE000BF93EF93FF93E0910401F0910501099500
:100FF000FF91EF91BF91AF919F918F917F916F91F1
:101000005F914F913F912F910F900FBE0F901F90C6
:1010100018951F920F920FB60F9211242F933F93A2
:101020004F935F936F937F938F939F93AF93BF93F0
:10103000EF93FF938091DD019091DE01A091DF019C
:10104000B091E001892B8A2B8B2B51F19091D80123
:10105000E091D901F091DA01808189278083809124
:10106000DD019091DE01A091DF01B091E001181641
:1010700019061A061B06C4F48091DD019091DE0169
:10108000A091DF01B091E0010197A109B10980931E
:10109000DD019093DE01A093DF01B093E00104C075
:1010A00080911E010E942105FF91EF91BF91AF91A8
:1010B0009F918F917F916F915F914F913F912F9170
:1010C0000F900FBE0F901F9018951F920F920FB6A2
:1010D0000F9211242F933F934F935F936F937F93BE
:1010E0008F939F93AF93BF93EF93FF9384E392E02B
:1010F0000E94CA00FF91EF91BF91AF919F918F9194
:101100007F916F915F914F913F912F910F900FBE03
:101110000F901F9018951F920F920FB60F921124E7
:101120002F938F939F93EF93FF93E0914402F0915D
:1011300045028081E0914A02F0914B0282FD12C08B
:10114000908180914D028F5F8F7320914E028217A4
:1011500051F0E0914D02F0E0EC5CFD4F958F8093F3
:101160004D0201C08081FF91EF919F918F912F914E
:101170000F900FBE0F901F9018951F920F920FB6F1
:101180000F9211242F933F934F935F936F937F930D
:101190008F939F93AF93BF93EF93FF938091B90089
:1011A000887F803609F49CC068F5883209F45BC0FA
:1011B00090F4803109F454C038F4882309F4F6C05F
:1011C000883009F44DC0F6C0883109F44CC0803233
:1011D00009F45DC0EFC0803409F468C048F480337E
:1011E00009F455C0883309F0E5C080930D02D8C0DA
:1011F000803509F44FC0883509F45DC0883409F0A2
:10120000D9C0D6C0883909F4C7C0A8F4883709F412
:1012100067C038F4883609F463C0803709F460C0C9
:10122000C9C0883809F4B8C0803909F45FC0803873
:1012300009F0C0C05BC0803B09F486C038F4803A36
:1012400009F466C0883A09F47FC0B4C0803C09F450
:10125000A7C0883C09F4A4C0883B09F48AC0AAC08E
:101260008091EA0110C090910C0280910B029817B6
:1012700070F5E0910C0281E08E0F80930C02F0E09B
:10128000E551FE4F80818093BB0085EC86C0809342
:101290000D028EC0E0910C0281E08E0F80930C0253
:1012A0008091BB00F0E0E551FE4F808390910C02ED
:1012B00080910B026EC0E0910C0281E08E0F809352
:1012C0000C028091BB00F0E0E551FE4F80838091DD
:1012D0000E0281116DC081E08093E90184EA61C052
:1012E00083E080930F021092B601CFCF8091B601B8
:1012F000803208F051C0E091B60181E08E0F8093FA
:10130000B6018091BB00F0E0EA56FE4F8083BDCF6E
:1013100085EC8093BC0010920F028091B601803260
:1013200030F4E091B601F0E0EA56FE4F1082609191
:10133000B60170E0E091B701F091B80186E991E063
:1013400009951092B60136C084E080930F02109286
:10135000950110929401E091B901F091BA010995BB
:1013600080919401811105C081E0809394011092D5
:101370007401E091950181E08E0F80939501F0E07A
:10138000EC58FE4F80818093BB0090919501809135
:101390009401981708F479CF85E88093BC000AC0BF
:1013A00085EC8093BC0010920F0204C010920D02D5
:1013B0000E947605FF91EF91BF91AF919F918F9120
:1013C0007F916F915F914F913F912F910F900FBE41
:1013D0000F901F901895E4E3F2E01382128288EEDA
:1013E00093E0A0E0B0E084839583A683B78323E3F2
:1013F00031E03183208325EC30E03587248724ECED
:1014000030E03787268720EC30E0318B208B21ECD1
:1014100030E0338B228B22EC30E0358B248B26ECB2
:1014200030E0378B268B118E128E138E148EE1EDE9
:10143000F2E01382128284839583A683B78385E4C6
:1014400091E0918380830895789484B5826084BD0F
:1014500084B5816084BD85B5826085BD85B58160B8
:1014600085BD80916E00816080936E001092810036
:1014700080918100826080938100809181008160F1
:1014800080938100809180008160809380008091B2
:10149000B10084608093B1008091B000816080933E
:1014A000B00080917A00846080937A0080917A0005
:1014B000826080937A0080917A00816080937A00C4
:1014C00080917A00806880937A001092C10061E078
:1014D0008BE00E94EB0161E083E00E94EB0161E0A0
:1014E00083E00E94BC0162E082E00E94EB0188EF91
:1014F00094E09093050180930401809169008C7FB2
:10150000816080936900E89A82E095E090930701FA
:101510008093060180916900837F886080936900D1
:10152000E99A80E68093DD021092BC011092BB0123
:10153000109231021092300210920F02C1E0C0935B
:101540000E021092E90161E082E10E94BC0161E0BB
:1015500083E10E94BC018091B9008E7F8093B90025
:101560008091B9008D7F8093B90088E48093B800A2
:1015700085E48093BC008EE195E09093BA0180935E
:10158000B9018FE195E09093B8018093B7018AE2A9
:1015900093E00E9434060E949801892B11F4C093B5
:1015A000BD0142E350E060E070E080ED97E00E9412
:1015B00027026CE370E080E090E00E94BE048BE0C4
:1015C0000E9421051092CC011092CB011092CE0105
:1015D0001092CD0168EB7BE080E090E00E94BE04B9
:1015E0008091CB019091CC0106970CF4E4C28091DC
:1015F000CB019091CC010F970CF0DDC244E650E096
:1016000060E070E08CE697E00E94270266E970E0F7
:1016100080E090E00E94BE0444E650E060E070E0AC
:101620008CE697E00E94270287E090E090931501F6
:101630008093140183E393E3A3E3B0E480930A016E
:1016400090930B01A0930C01B0930D011092120125
:1016500080E090E0A0E8BEE3809318019093190128
:10166000A0931A01B0931B0181E0809313011092A3
:10167000BD011092CC011092CB0180911201882300
:10168000B1F0E0910801F0910901EE0FFF1FEE0F9C
:10169000FF1FE15EFE4F80819181A281B381809323
:1016A0000A0190930B01A0930C01B0930D0120E06F
:1016B00030E040E850E46091180170911901809188
:1016C0001A0190911B010E94F10F60931801709311
:1016D000190180931A0190931B018091140190913C
:1016E0001501880F991F880F991F909315018093FA
:1016F00014018091160190911701880F991F880F8E
:10170000991F90931701809316019093C6018093BF
:10171000C50152E0E52EF12CDD24D39403E010E066
:101720001092CE011092CD011092CC011092CB01FB
:101730006AEF70E080E090E00E94BE04C091CD01AD
:10174000D091CE01D093CA01C093C9018091CB0141
:101750009091CC019093C8018093C70180911C01A6
:1017600090911D01C817D9070CF04EC08091C5019A
:101770009091C60101969093C6018093C501609136
:10178000C3017091C4016F5F7F4F7093C401609378
:10179000C30180E090E00E943A0F2091180130913F
:1017A000190140911A0150911B010E94EC0F18166B
:1017B0000CF062C06091BE017091BF01653071058F
:1017C000B4F0072E000C880B990B0E943C0F2AE9FD
:1017D00039E949E95FE30E94920E0E94040F709379
:1017E000C1016093C00110931D0100931C01109270
:1017F000BF011092BE01D092C20180911C01909154
:101800001D01C817D907C4F12091C5013091C60147
:1018100080911601909117012817390798F480914B
:10182000C201882379F08091C0019091C101909309
:10183000BF018093BE011092C201F0921D01E0929F
:101840001C0102C01092C2011092C6011092C50183
:101850001092C4011092C3018091BE019091BF010A
:101860002091140130911501821793072CF40196F1
:101870009093BF018093BE012091C9013091CA01AC
:1018800021153105C9F48091BE019091BF01181650
:10189000190694F440911301442371F002978F3F8D
:1018A0004FEF940729F09093BF018093BE0104C0CD
:1018B0001092BF011092BE018091C7019091C801A2
:1018C000181619060CF072C180911201882309F4D0
:1018D00097C0243031050CF493C08091BE019091E3
:1018E000BF01892B09F48CC04CE350E060E070E04C
:1018F00080ED97E00E942702C0910801D091090174
:10190000CE010196909309018093080164E670E08E
:1019100080E090E00E94BE040E949801892B31F47F
:1019200066E970E080E090E00E94BE041092CC0175
:101930001092CB016EE571E080E090E00E94BE0461
:101940008091CB019091CC01181619066CF44CE3F0
:1019500050E060E070E088E097E00E942702219765
:10196000D0930901C0930801809108019091090169
:10197000039764F04CE251E060E070E084E398E0AB
:101980000E94270210930901009308018091080129
:10199000909109011816190694F06AE570E080E04C
:1019A00090E00E94BE044CE251E060E070E084E30D
:1019B00098E00E9427021092090110920801E0911C
:1019C0000801F0910901EE0FFF1FEE0FFF1FE15E0E
:1019D000FE4F80819181A281B38180930A0190930F
:1019E0000B01A0930C01B0930D0168EC70E080E056
:1019F00090E00E94BE041092CC011092CB01D6C0A0
:101A00002AE939E949E55FE360910E0170910F0120
:101A100080911001909111010E948D0E8111C2C020
:101A20008091BE019091BF01892B09F0BBC06091EC
:101A3000C3017091C40180E090E00E943A0F2091B0
:101A400018013091190140911A0150911B010E9417
:101A5000EC0F18160CF0A6C08091BD01882309F484
:101A6000A1C01092CC011092CB016EE571E080E034
:101A700090E00E94BE048091CB019091CC01181699
:101A800019060CF093C042E350E060E070E08CEF88
:101A900098E00E9427021092CC011092CB016EE5D3
:101AA00071E080E090E00E94BE048091CB019091B3
:101AB000CC01181619060CF079C042E350E060E042
:101AC00070E084EC99E00E9427021092CC01109201
:101AD000CB016EE571E080E090E00E94BE04809151
:101AE000CB019091CC01181619060CF05FC042E3AF
:101AF00050E060E070E08CE89AE00E9427021092CB
:101B0000CC011092CB016BE470E080E090E00E9489
:101B1000BE0420E030E040E450E460910A0170919E
:101B20000B0180910C0190910D010E948D0E87FF99
:101B300004C098E0A92EB12C03C086E0A82EB12CD9
:101B40001092CC011092CB01C0E0D0E08091CB018B
:101B50009091CC01181619067CF41092BF011092D6
:101B6000BE010E94B9064CE251E060E070E080EFF7
:101B70009AE00E9427021AC08091BE019091BF0195
:101B800001969093BF018093BE010E94B9066AEF4F
:101B900070E080E090E00E94BE042196AC16BD0685
:101BA000A9F604C01092BF011092BE010E94B906AE
:101BB0000E946501B5CD8091CB019091CC010F972A
:101BC0000CF45BCD44E650E060E070E08CE697E01A
:101BD0000E94270266E970E080E090E00E94BE0467
:101BE00044E650E060E070E08CE697E00E94270257
:101BF00066E970E080E090E00E94BE0444E650E0B8
:101C000060E070E08CE697E00E94270286E090E0BA
:101C1000909315018093140180E090E0A0EABFE367
:101C20008093180190931901A0931A01B0931B019E
:101C300081E080931301109212018093BD0119CDB0
:101C40005058BB27AA270E94380E0C94B20F0E944E
:101C5000A40F38F00E94AB0F20F039F49F3F19F425
:101C600026F40C94A10F0EF4E095E7FB0C949B0F67
:101C7000E92F0E94C30F58F3BA176207730784074E
:101C8000950720F079F4A6F50C94E50F0EF4E09595
:101C90000B2EBA2FA02D0B01B90190010C01CA0126
:101CA000A0011124FF27591B99F0593F50F4503ED1
:101CB00068F11A16F040A22F232F342F4427585FC3
:101CC000F3CF469537952795A795F0405395C9F7DB
:101CD0007EF41F16BA0B620B730B840BBAF0915093
:101CE000A1F0FF0FBB1F661F771F881FC2F70EC032
:101CF000BA0F621F731F841F48F487957795679505
:101D0000B795F7959E3F08F0B0CF9395880F08F0F0
:101D10009927EE0F9795879508950E94770F08F4FD
:101D200081E008950E94A60E0C94B20F0E94AB0FA2
:101D300058F00E94A40F40F029F45F3F29F00C9462
:101D40009B0F51110C94E60F0C94A10F0E94C30F2E
:101D500068F39923B1F3552391F3951B550BBB27DA
:101D6000AA2762177307840738F09F5F5F4F220F1F
:101D7000331F441FAA1FA9F335D00E2E3AF0E0E816
:101D800032D091505040E695001CCAF72BD0FE2F60
:101D900029D0660F771F881FBB1F261737074807F4
:101DA000AB07B0E809F0BB0B802DBF01FF279358AC
:101DB0005F4F3AF09E3F510578F00C949B0F0C94C6
:101DC000E60F5F3FE4F3983ED4F3869577956795E9
:101DD000B795F7959F5FC9F7880F911D96958795E1
:101DE00097F90895E1E0660F771F881FBB1F621700
:101DF00073078407BA0720F0621B730B840BBA0BBE
:101E0000EE1F88F7E09508950E940B0F6894B111BA
:101E10000C94E60F08950E94CB0F88F09F5798F01E
:101E2000B92F9927B751B0F0E1F0660F771F881FDF
:101E3000991F1AF0BA95C9F714C0B13091F00E94F9
:101E4000E50FB1E008950C94E50F672F782F8827F0
:101E5000B85F39F0B93FCCF3869577956795B39520
:101E6000D9F73EF490958095709561957F4F8F4F8F
:101E70009F4F0895E89409C097FB3EF49095809594
:101E8000709561957F4F8F4F9F4F9923A9F0F92F40
:101E900096E9BB279395F695879577956795B795BE
:101EA000F111F8CFFAF4BB0F11F460FF1BC06F5FA4
:101EB0007F4F8F4F9F4F16C0882311F096E911C0B6
:101EC000772321F09EE8872F762F05C0662371F0D7
:101ED00096E8862F70E060E02AF09A95660F771FEB
:101EE000881FDAF7880F9695879597F90895990FC7
:101EF0000008550FAA0BE0E8FEEF16161706E807D4
:101F0000F907C0F012161306E407F50798F0621BF4
:101F1000730B840B950B39F40A2661F0232B242BC9
:101F2000252B21F408950A2609F4A140A6958FEFE8
:101F3000811D811D089597F99F6780E870E060E03A
:101F400008959FEF80EC089500240A941616170652
:101F500018060906089500240A941216130614069A
:101F600005060895092E0394000C11F4882352F0FD
:101F7000BB0F40F4BF2B11F460FF04C06F5F7F4FB5
:101F80008F4F9F4F089557FD9058440F551F59F09C
:101F90005F3F71F04795880F97FB991F61F09F3F56
:101FA00079F087950895121613061406551FF2CF7F
:101FB0004695F1DF08C0161617061806991FF1CFCF
:101FC00086957105610508940895E894BB276627F6
:101FD0007727CB0197F908950E94770F08F48FEFC8
:101FE00008950E9404100C94B20F0E94A40F38F0C0
:101FF0000E94AB0F20F0952311F00C949B0F0C94D2
:10200000A10F11240C94E60F0E94C30F70F3959F4B
:10201000C1F3950F50E0551F629FF001729FBB27DF
:10202000F00DB11D639FAA27F00DB11DAA1F649F7B
:102030006627B00DA11D661F829F2227B00DA11D2E
:10204000621F739FB00DA11D621F839FA00D611DB4
:10205000221F749F3327A00D611D231F849F600DD5
:10206000211D822F762F6A2F11249F5750409AF0FE
:10207000F1F088234AF0EE0FFF1FBB1F661F771F8A
:10208000881F91505040A9F79E3F510580F00C9455
:102090009B0F0C94E60F5F3FE4F3983ED4F38695D4
:1020A00077956795B795F795E7959F5FC1F7FE2BF5
:1020B000880F911D9695879597F90895A1E21A2E9C
:1020C000AA1BBB1BFD010DC0AA1FBB1FEE1FFF1FDC
:1020D000A217B307E407F50720F0A21BB30BE40B2C
:1020E000F50B661F771F881F991F1A9469F7609573
:1020F0007095809590959B01AC01BD01CF0108952D
:10210000052E97FB1EF400940E94971057FD07D0F0
:102110000E945E1007FC03D04EF40C94971050956B
:102120004095309521953F4F4F4F5F4F08959095C3
:102130008095709561957F4F8F4F9F4F08950E94B6
:10214000B010A59F900DB49F900DA49F800D911D80
:1021500011240895EE0FFF1F0590F491E02D0994CE
:10216000A29FB001B39FC001A39F700D811D1124D8
:10217000911DB29F700D811D1124911D089581E064
:0C21800090E0F8940C94C410F894FFCF89
:10218C002A0300002005200503009A9979409A99AA
:10219C00593F010105000A000000803E0200FF9A31
:1021AC0099194033333340CDCC4C409A9979400047
:1021BC00000000EC004C058D003901BE009C00B005
:1021CC0000000000000106D4053106A805CC05B8B6
:0421DC0005A905004C
:00000001FF
